{
  "_format": "hh-sol-artifact-1",
  "contractName": "DevItgV2",
  "sourceName": "contracts/DevItgV2.sol",
  "abi": [
    {
      "inputs": [
        {
          "internalType": "string",
          "name": "_tokenName",
          "type": "string"
        },
        {
          "internalType": "string",
          "name": "_tokenSymbol",
          "type": "string"
        },
        {
          "internalType": "uint256",
          "name": "_cost",
          "type": "uint256"
        },
        {
          "internalType": "uint256",
          "name": "_maxSupply",
          "type": "uint256"
        },
        {
          "internalType": "uint256",
          "name": "_maxMintAmountPerTx",
          "type": "uint256"
        },
        {
          "internalType": "string",
          "name": "_hiddenMetadataUri",
          "type": "string"
        }
      ],
      "stateMutability": "nonpayable",
      "type": "constructor"
    },
    {
      "inputs": [],
      "name": "ApprovalCallerNotOwnerNorApproved",
      "type": "error"
    },
    {
      "inputs": [],
      "name": "ApprovalQueryForNonexistentToken",
      "type": "error"
    },
    {
      "inputs": [],
      "name": "ApprovalToCurrentOwner",
      "type": "error"
    },
    {
      "inputs": [],
      "name": "ApproveToCaller",
      "type": "error"
    },
    {
      "inputs": [],
      "name": "BalanceQueryForZeroAddress",
      "type": "error"
    },
    {
      "inputs": [],
      "name": "MintToZeroAddress",
      "type": "error"
    },
    {
      "inputs": [],
      "name": "MintZeroQuantity",
      "type": "error"
    },
    {
      "inputs": [],
      "name": "OwnerQueryForNonexistentToken",
      "type": "error"
    },
    {
      "inputs": [],
      "name": "TransferCallerNotOwnerNorApproved",
      "type": "error"
    },
    {
      "inputs": [],
      "name": "TransferFromIncorrectOwner",
      "type": "error"
    },
    {
      "inputs": [],
      "name": "TransferToNonERC721ReceiverImplementer",
      "type": "error"
    },
    {
      "inputs": [],
      "name": "TransferToZeroAddress",
      "type": "error"
    },
    {
      "anonymous": false,
      "inputs": [
        {
          "indexed": true,
          "internalType": "address",
          "name": "owner",
          "type": "address"
        },
        {
          "indexed": true,
          "internalType": "address",
          "name": "approved",
          "type": "address"
        },
        {
          "indexed": true,
          "internalType": "uint256",
          "name": "tokenId",
          "type": "uint256"
        }
      ],
      "name": "Approval",
      "type": "event"
    },
    {
      "anonymous": false,
      "inputs": [
        {
          "indexed": true,
          "internalType": "address",
          "name": "owner",
          "type": "address"
        },
        {
          "indexed": true,
          "internalType": "address",
          "name": "operator",
          "type": "address"
        },
        {
          "indexed": false,
          "internalType": "bool",
          "name": "approved",
          "type": "bool"
        }
      ],
      "name": "ApprovalForAll",
      "type": "event"
    },
    {
      "anonymous": false,
      "inputs": [
        {
          "indexed": true,
          "internalType": "address",
          "name": "previousOwner",
          "type": "address"
        },
        {
          "indexed": true,
          "internalType": "address",
          "name": "newOwner",
          "type": "address"
        }
      ],
      "name": "OwnershipTransferred",
      "type": "event"
    },
    {
      "anonymous": false,
      "inputs": [
        {
          "indexed": true,
          "internalType": "address",
          "name": "from",
          "type": "address"
        },
        {
          "indexed": true,
          "internalType": "address",
          "name": "to",
          "type": "address"
        },
        {
          "indexed": true,
          "internalType": "uint256",
          "name": "tokenId",
          "type": "uint256"
        }
      ],
      "name": "Transfer",
      "type": "event"
    },
    {
      "inputs": [
        {
          "internalType": "address",
          "name": "to",
          "type": "address"
        },
        {
          "internalType": "uint256",
          "name": "tokenId",
          "type": "uint256"
        }
      ],
      "name": "approve",
      "outputs": [],
      "stateMutability": "nonpayable",
      "type": "function"
    },
    {
      "inputs": [
        {
          "internalType": "address",
          "name": "owner",
          "type": "address"
        }
      ],
      "name": "balanceOf",
      "outputs": [
        {
          "internalType": "uint256",
          "name": "",
          "type": "uint256"
        }
      ],
      "stateMutability": "view",
      "type": "function"
    },
    {
      "inputs": [],
      "name": "cost",
      "outputs": [
        {
          "internalType": "uint256",
          "name": "",
          "type": "uint256"
        }
      ],
      "stateMutability": "view",
      "type": "function"
    },
    {
      "inputs": [
        {
          "internalType": "address payable",
          "name": "_to",
          "type": "address"
        }
      ],
      "name": "destroySmartContract",
      "outputs": [],
      "stateMutability": "nonpayable",
      "type": "function"
    },
    {
      "inputs": [
        {
          "internalType": "uint256",
          "name": "tokenId",
          "type": "uint256"
        }
      ],
      "name": "getApproved",
      "outputs": [
        {
          "internalType": "address",
          "name": "",
          "type": "address"
        }
      ],
      "stateMutability": "view",
      "type": "function"
    },
    {
      "inputs": [],
      "name": "hiddenMetadataUri",
      "outputs": [
        {
          "internalType": "string",
          "name": "",
          "type": "string"
        }
      ],
      "stateMutability": "view",
      "type": "function"
    },
    {
      "inputs": [
        {
          "internalType": "address",
          "name": "owner",
          "type": "address"
        },
        {
          "internalType": "address",
          "name": "operator",
          "type": "address"
        }
      ],
      "name": "isApprovedForAll",
      "outputs": [
        {
          "internalType": "bool",
          "name": "",
          "type": "bool"
        }
      ],
      "stateMutability": "view",
      "type": "function"
    },
    {
      "inputs": [],
      "name": "maxMintAmountPerTx",
      "outputs": [
        {
          "internalType": "uint256",
          "name": "",
          "type": "uint256"
        }
      ],
      "stateMutability": "view",
      "type": "function"
    },
    {
      "inputs": [],
      "name": "maxSupply",
      "outputs": [
        {
          "internalType": "uint256",
          "name": "",
          "type": "uint256"
        }
      ],
      "stateMutability": "view",
      "type": "function"
    },
    {
      "inputs": [],
      "name": "merkleRoot",
      "outputs": [
        {
          "internalType": "bytes32",
          "name": "",
          "type": "bytes32"
        }
      ],
      "stateMutability": "view",
      "type": "function"
    },
    {
      "inputs": [
        {
          "internalType": "uint256",
          "name": "_mintAmount",
          "type": "uint256"
        }
      ],
      "name": "mint",
      "outputs": [],
      "stateMutability": "payable",
      "type": "function"
    },
    {
      "inputs": [
        {
          "internalType": "uint256",
          "name": "_mintAmount",
          "type": "uint256"
        },
        {
          "internalType": "address",
          "name": "_receiver",
          "type": "address"
        }
      ],
      "name": "mintForAddress",
      "outputs": [],
      "stateMutability": "nonpayable",
      "type": "function"
    },
    {
      "inputs": [],
      "name": "name",
      "outputs": [
        {
          "internalType": "string",
          "name": "",
          "type": "string"
        }
      ],
      "stateMutability": "view",
      "type": "function"
    },
    {
      "inputs": [],
      "name": "owner",
      "outputs": [
        {
          "internalType": "address",
          "name": "",
          "type": "address"
        }
      ],
      "stateMutability": "view",
      "type": "function"
    },
    {
      "inputs": [
        {
          "internalType": "uint256",
          "name": "tokenId",
          "type": "uint256"
        }
      ],
      "name": "ownerOf",
      "outputs": [
        {
          "internalType": "address",
          "name": "",
          "type": "address"
        }
      ],
      "stateMutability": "view",
      "type": "function"
    },
    {
      "inputs": [],
      "name": "paused",
      "outputs": [
        {
          "internalType": "bool",
          "name": "",
          "type": "bool"
        }
      ],
      "stateMutability": "view",
      "type": "function"
    },
    {
      "inputs": [],
      "name": "renounceOwnership",
      "outputs": [],
      "stateMutability": "nonpayable",
      "type": "function"
    },
    {
      "inputs": [],
      "name": "revealed",
      "outputs": [
        {
          "internalType": "bool",
          "name": "",
          "type": "bool"
        }
      ],
      "stateMutability": "view",
      "type": "function"
    },
    {
      "inputs": [
        {
          "internalType": "address",
          "name": "from",
          "type": "address"
        },
        {
          "internalType": "address",
          "name": "to",
          "type": "address"
        },
        {
          "internalType": "uint256",
          "name": "tokenId",
          "type": "uint256"
        }
      ],
      "name": "safeTransferFrom",
      "outputs": [],
      "stateMutability": "nonpayable",
      "type": "function"
    },
    {
      "inputs": [
        {
          "internalType": "address",
          "name": "from",
          "type": "address"
        },
        {
          "internalType": "address",
          "name": "to",
          "type": "address"
        },
        {
          "internalType": "uint256",
          "name": "tokenId",
          "type": "uint256"
        },
        {
          "internalType": "bytes",
          "name": "_data",
          "type": "bytes"
        }
      ],
      "name": "safeTransferFrom",
      "outputs": [],
      "stateMutability": "nonpayable",
      "type": "function"
    },
    {
      "inputs": [
        {
          "internalType": "address",
          "name": "operator",
          "type": "address"
        },
        {
          "internalType": "bool",
          "name": "approved",
          "type": "bool"
        }
      ],
      "name": "setApprovalForAll",
      "outputs": [],
      "stateMutability": "nonpayable",
      "type": "function"
    },
    {
      "inputs": [
        {
          "internalType": "uint256",
          "name": "_cost",
          "type": "uint256"
        }
      ],
      "name": "setCost",
      "outputs": [],
      "stateMutability": "nonpayable",
      "type": "function"
    },
    {
      "inputs": [
        {
          "internalType": "string",
          "name": "_hiddenMetadataUri",
          "type": "string"
        }
      ],
      "name": "setHiddenMetadataUri",
      "outputs": [],
      "stateMutability": "nonpayable",
      "type": "function"
    },
    {
      "inputs": [
        {
          "internalType": "uint256",
          "name": "_maxMintAmountPerTx",
          "type": "uint256"
        }
      ],
      "name": "setMaxMintAmountPerTx",
      "outputs": [],
      "stateMutability": "nonpayable",
      "type": "function"
    },
    {
      "inputs": [
        {
          "internalType": "bytes32",
          "name": "_merkleRoot",
          "type": "bytes32"
        }
      ],
      "name": "setMerkleRoot",
      "outputs": [],
      "stateMutability": "nonpayable",
      "type": "function"
    },
    {
      "inputs": [
        {
          "internalType": "bool",
          "name": "_state",
          "type": "bool"
        }
      ],
      "name": "setPaused",
      "outputs": [],
      "stateMutability": "nonpayable",
      "type": "function"
    },
    {
      "inputs": [
        {
          "internalType": "bool",
          "name": "_state",
          "type": "bool"
        }
      ],
      "name": "setRevealed",
      "outputs": [],
      "stateMutability": "nonpayable",
      "type": "function"
    },
    {
      "inputs": [
        {
          "internalType": "string",
          "name": "_uriPrefix",
          "type": "string"
        }
      ],
      "name": "setUriPrefix",
      "outputs": [],
      "stateMutability": "nonpayable",
      "type": "function"
    },
    {
      "inputs": [
        {
          "internalType": "string",
          "name": "_uriSuffix",
          "type": "string"
        }
      ],
      "name": "setUriSuffix",
      "outputs": [],
      "stateMutability": "nonpayable",
      "type": "function"
    },
    {
      "inputs": [
        {
          "internalType": "bool",
          "name": "_state",
          "type": "bool"
        }
      ],
      "name": "setWhitelistMintEnabled",
      "outputs": [],
      "stateMutability": "nonpayable",
      "type": "function"
    },
    {
      "inputs": [
        {
          "internalType": "bytes4",
          "name": "interfaceId",
          "type": "bytes4"
        }
      ],
      "name": "supportsInterface",
      "outputs": [
        {
          "internalType": "bool",
          "name": "",
          "type": "bool"
        }
      ],
      "stateMutability": "view",
      "type": "function"
    },
    {
      "inputs": [],
      "name": "symbol",
      "outputs": [
        {
          "internalType": "string",
          "name": "",
          "type": "string"
        }
      ],
      "stateMutability": "view",
      "type": "function"
    },
    {
      "inputs": [
        {
          "internalType": "uint256",
          "name": "_tokenId",
          "type": "uint256"
        }
      ],
      "name": "tokenURI",
      "outputs": [
        {
          "internalType": "string",
          "name": "",
          "type": "string"
        }
      ],
      "stateMutability": "view",
      "type": "function"
    },
    {
      "inputs": [],
      "name": "totalSupply",
      "outputs": [
        {
          "internalType": "uint256",
          "name": "",
          "type": "uint256"
        }
      ],
      "stateMutability": "view",
      "type": "function"
    },
    {
      "inputs": [
        {
          "internalType": "address",
          "name": "from",
          "type": "address"
        },
        {
          "internalType": "address",
          "name": "to",
          "type": "address"
        },
        {
          "internalType": "uint256",
          "name": "tokenId",
          "type": "uint256"
        }
      ],
      "name": "transferFrom",
      "outputs": [],
      "stateMutability": "nonpayable",
      "type": "function"
    },
    {
      "inputs": [
        {
          "internalType": "address",
          "name": "newOwner",
          "type": "address"
        }
      ],
      "name": "transferOwnership",
      "outputs": [],
      "stateMutability": "nonpayable",
      "type": "function"
    },
    {
      "inputs": [],
      "name": "uriPrefix",
      "outputs": [
        {
          "internalType": "string",
          "name": "",
          "type": "string"
        }
      ],
      "stateMutability": "view",
      "type": "function"
    },
    {
      "inputs": [],
      "name": "uriSuffix",
      "outputs": [
        {
          "internalType": "string",
          "name": "",
          "type": "string"
        }
      ],
      "stateMutability": "view",
      "type": "function"
    },
    {
      "inputs": [
        {
          "internalType": "address",
          "name": "_owner",
          "type": "address"
        }
      ],
      "name": "walletOfOwner",
      "outputs": [
        {
          "internalType": "uint256[]",
          "name": "",
          "type": "uint256[]"
        }
      ],
      "stateMutability": "view",
      "type": "function"
    },
    {
      "inputs": [
        {
          "internalType": "address",
          "name": "",
          "type": "address"
        }
      ],
      "name": "whitelistClaimed",
      "outputs": [
        {
          "internalType": "bool",
          "name": "",
          "type": "bool"
        }
      ],
      "stateMutability": "view",
      "type": "function"
    },
    {
      "inputs": [
        {
          "internalType": "uint256",
          "name": "_mintAmount",
          "type": "uint256"
        },
        {
          "internalType": "bytes32[]",
          "name": "_merkleProof",
          "type": "bytes32[]"
        }
      ],
      "name": "whitelistMint",
      "outputs": [],
      "stateMutability": "payable",
      "type": "function"
    },
    {
      "inputs": [],
      "name": "whitelistMintEnabled",
      "outputs": [
        {
          "internalType": "bool",
          "name": "",
          "type": "bool"
        }
      ],
      "stateMutability": "view",
      "type": "function"
    },
    {
      "inputs": [],
      "name": "withdraw",
      "outputs": [],
      "stateMutability": "nonpayable",
      "type": "function"
    }
  ],
  "bytecode": "0x60e06040526036608081815290620029c560a03980516200002991600c91602090910190620001d7565b5060408051808201909152600d8082526c36b2ba30b230ba30973539b7b760991b60209092019182526200005e9181620001d7565b506012805462ffffff1916620100011790553480156200007d57600080fd5b50604051620029fb380380620029fb833981016040819052620000a0916200034a565b855186908690620000b9906002906020850190620001d7565b508051620000cf906003906020840190620001d7565b5050600160005550620000e2336200010d565b6001600955600f8490556010839055601182905562000101816200015f565b50505050505062000434565b600880546001600160a01b038381166001600160a01b0319831681179093556040519116919082907f8be0079c531659141344cd1fd0a4f28419497f9722a3daafe3b4186f6b6457e090600090a35050565b6008546001600160a01b03163314620001be5760405162461bcd60e51b815260206004820181905260248201527f4f776e61626c653a2063616c6c6572206973206e6f7420746865206f776e6572604482015260640160405180910390fd5b8051620001d390600e906020840190620001d7565b5050565b828054620001e590620003f7565b90600052602060002090601f01602090048101928262000209576000855562000254565b82601f106200022457805160ff191683800117855562000254565b8280016001018555821562000254579182015b828111156200025457825182559160200191906001019062000237565b506200026292915062000266565b5090565b5b8082111562000262576000815560010162000267565b634e487b7160e01b600052604160045260246000fd5b600082601f830112620002a557600080fd5b81516001600160401b0380821115620002c257620002c26200027d565b604051601f8301601f19908116603f01168101908282118183101715620002ed57620002ed6200027d565b816040528381526020925086838588010111156200030a57600080fd5b600091505b838210156200032e57858201830151818301840152908201906200030f565b83821115620003405760008385830101525b9695505050505050565b60008060008060008060c087890312156200036457600080fd5b86516001600160401b03808211156200037c57600080fd5b6200038a8a838b0162000293565b97506020890151915080821115620003a157600080fd5b620003af8a838b0162000293565b965060408901519550606089015194506080890151935060a0890151915080821115620003db57600080fd5b50620003ea89828a0162000293565b9150509295509295509295565b600181811c908216806200040c57607f821691505b602082108114156200042e57634e487b7160e01b600052602260045260246000fd5b50919050565b61258180620004446000396000f3fe60806040526004361061025c5760003560e01c80636caede3d11610144578063b071401b116100b6578063d5abeb011161007a578063d5abeb01146106c8578063db4bec44146106de578063e0a808531461070e578063e985e9c51461072e578063efbd73f414610777578063f2fde38b1461079757600080fd5b8063b071401b14610635578063b767a09814610655578063b88d4fde14610675578063c87b56dd14610695578063d2cab056146106b557600080fd5b80638da5cb5b116101085780638da5cb5b146105a457806394354fd0146105c257806395d89b41146105d8578063a0712d68146105ed578063a22cb46514610600578063a45ba8e71461062057600080fd5b80636caede3d1461051057806370a082311461052f578063715018a61461054f5780637cb64759146105645780637ec4a6591461058457600080fd5b806339df43ff116101dd5780634fdd43cb116101a15780634fdd43cb1461046c578063518302271461048c5780635503a0e8146104ac5780635c975abb146104c157806362b99ad4146104db5780636352211e146104f057600080fd5b806339df43ff146103ca5780633ccfd60b146103ea57806342842e0e146103ff578063438b63001461041f57806344a0d68a1461044c57600080fd5b806316ba10e01161022457806316ba10e01461033657806316c38b3c1461035657806318160ddd1461037657806323b872dd146103945780632eb4a7ab146103b457600080fd5b806301ffc9a71461026157806306fdde0314610296578063081812fc146102b8578063095ea7b3146102f057806313faede614610312575b600080fd5b34801561026d57600080fd5b5061028161027c366004611edb565b6107b7565b60405190151581526020015b60405180910390f35b3480156102a257600080fd5b506102ab610809565b60405161028d9190611f50565b3480156102c457600080fd5b506102d86102d3366004611f63565b61089b565b6040516001600160a01b03909116815260200161028d565b3480156102fc57600080fd5b5061031061030b366004611f91565b6108df565b005b34801561031e57600080fd5b50610328600f5481565b60405190815260200161028d565b34801561034257600080fd5b50610310610351366004612049565b61096d565b34801561036257600080fd5b506103106103713660046120a7565b6109b7565b34801561038257600080fd5b50610328600154600054036000190190565b3480156103a057600080fd5b506103106103af3660046120c2565b6109f4565b3480156103c057600080fd5b50610328600a5481565b3480156103d657600080fd5b506103106103e5366004612103565b6109ff565b3480156103f657600080fd5b50610310610a35565b34801561040b57600080fd5b5061031061041a3660046120c2565b610b30565b34801561042b57600080fd5b5061043f61043a366004612103565b610b4b565b60405161028d9190612120565b34801561045857600080fd5b50610310610467366004611f63565b610c94565b34801561047857600080fd5b50610310610487366004612049565b610cc3565b34801561049857600080fd5b506012546102819062010000900460ff1681565b3480156104b857600080fd5b506102ab610d00565b3480156104cd57600080fd5b506012546102819060ff1681565b3480156104e757600080fd5b506102ab610d8e565b3480156104fc57600080fd5b506102d861050b366004611f63565b610d9b565b34801561051c57600080fd5b5060125461028190610100900460ff1681565b34801561053b57600080fd5b5061032861054a366004612103565b610dad565b34801561055b57600080fd5b50610310610dfc565b34801561057057600080fd5b5061031061057f366004611f63565b610e32565b34801561059057600080fd5b5061031061059f366004612049565b610e61565b3480156105b057600080fd5b506008546001600160a01b03166102d8565b3480156105ce57600080fd5b5061032860115481565b3480156105e457600080fd5b506102ab610e9e565b6103106105fb366004611f63565b610ead565b34801561060c57600080fd5b5061031061061b366004612164565b610fca565b34801561062c57600080fd5b506102ab611060565b34801561064157600080fd5b50610310610650366004611f63565b61106d565b34801561066157600080fd5b506103106106703660046120a7565b61109c565b34801561068157600080fd5b50610310610690366004612199565b6110e0565b3480156106a157600080fd5b506102ab6106b0366004611f63565b611131565b6103106106c3366004612219565b611297565b3480156106d457600080fd5b5061032860105481565b3480156106ea57600080fd5b506102816106f9366004612103565b600b6020526000908152604090205460ff1681565b34801561071a57600080fd5b506103106107293660046120a7565b6114fc565b34801561073a57600080fd5b50610281610749366004612298565b6001600160a01b03918216600090815260076020908152604080832093909416825291909152205460ff1690565b34801561078357600080fd5b506103106107923660046122d1565b611542565b3480156107a357600080fd5b506103106107b2366004612103565b6115e2565b60006001600160e01b031982166380ac58cd60e01b14806107e857506001600160e01b03198216635b5e139f60e01b145b8061080357506301ffc9a760e01b6001600160e01b03198316145b92915050565b606060028054610818906122f6565b80601f0160208091040260200160405190810160405280929190818152602001828054610844906122f6565b80156108915780601f1061086657610100808354040283529160200191610891565b820191906000526020600020905b81548152906001019060200180831161087457829003601f168201915b5050505050905090565b60006108a68261167d565b6108c3576040516333d1c03960e21b815260040160405180910390fd5b506000908152600660205260409020546001600160a01b031690565b60006108ea82610d9b565b9050806001600160a01b0316836001600160a01b0316141561091f5760405163250fdee360e21b815260040160405180910390fd5b336001600160a01b0382161480159061093f575061093d8133610749565b155b1561095d576040516367d9dca160e11b815260040160405180910390fd5b6109688383836116b6565b505050565b6008546001600160a01b031633146109a05760405162461bcd60e51b815260040161099790612331565b60405180910390fd5b80516109b390600d906020840190611e2c565b5050565b6008546001600160a01b031633146109e15760405162461bcd60e51b815260040161099790612331565b6012805460ff1916911515919091179055565b610968838383611712565b6008546001600160a01b03163314610a295760405162461bcd60e51b815260040161099790612331565b806001600160a01b0316ff5b6008546001600160a01b03163314610a5f5760405162461bcd60e51b815260040161099790612331565b60026009541415610ab25760405162461bcd60e51b815260206004820152601f60248201527f5265656e7472616e637947756172643a207265656e7472616e742063616c6c006044820152606401610997565b60026009556000610acb6008546001600160a01b031690565b6001600160a01b03164760405160006040518083038185875af1925050503d8060008114610b15576040519150601f19603f3d011682016040523d82523d6000602084013e610b1a565b606091505b5050905080610b2857600080fd5b506001600955565b610968838383604051806020016040528060008152506110e0565b60606000610b5883610dad565b905060008167ffffffffffffffff811115610b7557610b75611fbd565b604051908082528060200260200182016040528015610b9e578160200160208202803683370190505b50905060016000805b8482108015610bb857506010548311155b15610c8957600083815260046020908152604091829020825160608101845290546001600160a01b0381168252600160a01b810467ffffffffffffffff1692820192909252600160e01b90910460ff161580159282018390529091610c26575080516001600160a01b031615155b15610c3057805191505b876001600160a01b0316826001600160a01b03161415610c765783858481518110610c5d57610c5d612366565b602090810291909101015282610c7281612392565b9350505b83610c8081612392565b94505050610ba7565b509195945050505050565b6008546001600160a01b03163314610cbe5760405162461bcd60e51b815260040161099790612331565b600f55565b6008546001600160a01b03163314610ced5760405162461bcd60e51b815260040161099790612331565b80516109b390600e906020840190611e2c565b600d8054610d0d906122f6565b80601f0160208091040260200160405190810160405280929190818152602001828054610d39906122f6565b8015610d865780601f10610d5b57610100808354040283529160200191610d86565b820191906000526020600020905b815481529060010190602001808311610d6957829003601f168201915b505050505081565b600c8054610d0d906122f6565b6000610da682611928565b5192915050565b60006001600160a01b038216610dd6576040516323d3ad8160e21b815260040160405180910390fd5b506001600160a01b031660009081526005602052604090205467ffffffffffffffff1690565b6008546001600160a01b03163314610e265760405162461bcd60e51b815260040161099790612331565b610e306000611a51565b565b6008546001600160a01b03163314610e5c5760405162461bcd60e51b815260040161099790612331565b600a55565b6008546001600160a01b03163314610e8b5760405162461bcd60e51b815260040161099790612331565b80516109b390600c906020840190611e2c565b606060038054610818906122f6565b80600081118015610ec057506011548111155b610edc5760405162461bcd60e51b8152600401610997906123ad565b60105481610ef1600154600054036000190190565b610efb91906123db565b1115610f195760405162461bcd60e51b8152600401610997906123f3565b8180600f54610f289190612421565b341015610f6d5760405162461bcd60e51b8152602060048201526013602482015272496e73756666696369656e742066756e64732160681b6044820152606401610997565b60125460ff1615610fc05760405162461bcd60e51b815260206004820152601760248201527f54686520636f6e747261637420697320706175736564210000000000000000006044820152606401610997565b6109683384611aa3565b6001600160a01b038216331415610ff45760405163b06307db60e01b815260040160405180910390fd5b3360008181526007602090815260408083206001600160a01b03871680855290835292819020805460ff191686151590811790915590519081529192917f17307eab39ab6107e8899845ad3d59bd9653f200f220920489ca2b5937696c31910160405180910390a35050565b600e8054610d0d906122f6565b6008546001600160a01b031633146110975760405162461bcd60e51b815260040161099790612331565b601155565b6008546001600160a01b031633146110c65760405162461bcd60e51b815260040161099790612331565b601280549115156101000261ff0019909216919091179055565b6110eb848484611712565b6001600160a01b0383163b1515801561110d575061110b84848484611abd565b155b1561112b576040516368d2bf6b60e11b815260040160405180910390fd5b50505050565b606061113c8261167d565b6111a05760405162461bcd60e51b815260206004820152602f60248201527f4552433732314d657461646174613a2055524920717565727920666f72206e6f60448201526e3732bc34b9ba32b73a103a37b5b2b760891b6064820152608401610997565b60125462010000900460ff1661124257600e80546111bd906122f6565b80601f01602080910402602001604051908101604052809291908181526020018280546111e9906122f6565b80156112365780601f1061120b57610100808354040283529160200191611236565b820191906000526020600020905b81548152906001019060200180831161121957829003601f168201915b50505050509050919050565b600061124c611bb5565b9050600081511161126c5760405180602001604052806000815250611290565b80600d604051602001611280929190612440565b6040516020818303038152906040525b9392505050565b826000811180156112aa57506011548111155b6112c65760405162461bcd60e51b8152600401610997906123ad565b601054816112db600154600054036000190190565b6112e591906123db565b11156113035760405162461bcd60e51b8152600401610997906123f3565b8380600f546113129190612421565b3410156113575760405162461bcd60e51b8152602060048201526013602482015272496e73756666696369656e742066756e64732160681b6044820152606401610997565b601254610100900460ff166113b95760405162461bcd60e51b815260206004820152602260248201527f5468652077686974656c6973742073616c65206973206e6f7420656e61626c65604482015261642160f01b6064820152608401610997565b336000908152600b602052604090205460ff16156114195760405162461bcd60e51b815260206004820152601860248201527f4164647265737320616c726561647920636c61696d65642100000000000000006044820152606401610997565b6040516bffffffffffffffffffffffff193360601b16602082015260009060340160405160208183030381529060405280519060200120905061149385858080602002602001604051908101604052809392919081815260200183836020028082843760009201919091525050600a549150849050611bc4565b6114d05760405162461bcd60e51b815260206004820152600e60248201526d496e76616c69642070726f6f662160901b6044820152606401610997565b336000818152600b60205260409020805460ff191660011790556114f49087611aa3565b505050505050565b6008546001600160a01b031633146115265760405162461bcd60e51b815260040161099790612331565b60128054911515620100000262ff000019909216919091179055565b8160008111801561155557506011548111155b6115715760405162461bcd60e51b8152600401610997906123ad565b60105481611586600154600054036000190190565b61159091906123db565b11156115ae5760405162461bcd60e51b8152600401610997906123f3565b6008546001600160a01b031633146115d85760405162461bcd60e51b815260040161099790612331565b6109688284611aa3565b6008546001600160a01b0316331461160c5760405162461bcd60e51b815260040161099790612331565b6001600160a01b0381166116715760405162461bcd60e51b815260206004820152602660248201527f4f776e61626c653a206e6577206f776e657220697320746865207a65726f206160448201526564647265737360d01b6064820152608401610997565b61167a81611a51565b50565b600081600111158015611691575060005482105b8015610803575050600090815260046020526040902054600160e01b900460ff161590565b60008281526006602052604080822080546001600160a01b0319166001600160a01b0387811691821790925591518593918516917f8c5be1e5ebec7d5bd14f71427d1e84f3dd0314c0f7b2291e5b200ac8c7c3b92591a4505050565b600061171d82611928565b80519091506000906001600160a01b0316336001600160a01b0316148061174b5750815161174b9033610749565b8061176657503361175b8461089b565b6001600160a01b0316145b90508061178657604051632ce44b5f60e11b815260040160405180910390fd5b846001600160a01b031682600001516001600160a01b0316146117bb5760405162a1148160e81b815260040160405180910390fd5b6001600160a01b0384166117e257604051633a954ecd60e21b815260040160405180910390fd5b6117f260008484600001516116b6565b6001600160a01b038581166000908152600560209081526040808320805467ffffffffffffffff1980821667ffffffffffffffff92831660001901831617909255898616808652838620805493841693831660019081018416949094179055898652600490945282852080546001600160e01b031916909417600160a01b4290921691909102179092559086018083529120549091166118de576000548110156118de578251600082815260046020908152604090912080549186015167ffffffffffffffff16600160a01b026001600160e01b03199092166001600160a01b03909316929092171790555b5082846001600160a01b0316866001600160a01b03167fddf252ad1be2c89b69c2b068fc378daa952ba7f163c4a11628f55a4df523b3ef60405160405180910390a45b5050505050565b60408051606081018252600080825260208201819052918101919091528180600111158015611958575060005481105b15611a3857600081815260046020908152604091829020825160608101845290546001600160a01b0381168252600160a01b810467ffffffffffffffff1692820192909252600160e01b90910460ff16151591810182905290611a365780516001600160a01b0316156119cc579392505050565b5060001901600081815260046020908152604091829020825160608101845290546001600160a01b038116808352600160a01b820467ffffffffffffffff1693830193909352600160e01b900460ff1615159281019290925215611a31579392505050565b6119cc565b505b604051636f96cda160e11b815260040160405180910390fd5b600880546001600160a01b038381166001600160a01b0319831681179093556040519116919082907f8be0079c531659141344cd1fd0a4f28419497f9722a3daafe3b4186f6b6457e090600090a35050565b6109b3828260405180602001604052806000815250611bda565b604051630a85bd0160e11b81526000906001600160a01b0385169063150b7a0290611af29033908990889088906004016124f1565b602060405180830381600087803b158015611b0c57600080fd5b505af1925050508015611b3c575060408051601f3d908101601f19168201909252611b399181019061252e565b60015b611b97573d808015611b6a576040519150601f19603f3d011682016040523d82523d6000602084013e611b6f565b606091505b508051611b8f576040516368d2bf6b60e11b815260040160405180910390fd5b805181602001fd5b6001600160e01b031916630a85bd0160e11b1490505b949350505050565b6060600c8054610818906122f6565b600082611bd18584611be7565b14949350505050565b6109688383836001611c5b565b600081815b8451811015611c53576000858281518110611c0957611c09612366565b60200260200101519050808311611c2f5760008381526020829052604090209250611c40565b600081815260208490526040902092505b5080611c4b81612392565b915050611bec565b509392505050565b6000546001600160a01b038516611c8457604051622e076360e81b815260040160405180910390fd5b83611ca25760405163b562e8dd60e01b815260040160405180910390fd5b6001600160a01b038516600081815260056020908152604080832080546fffffffffffffffffffffffffffffffff19811667ffffffffffffffff8083168c0181169182176801000000000000000067ffffffffffffffff1990941690921783900481168c01811690920217909155858452600490925290912080546001600160e01b031916909217600160a01b429092169190910217905580808501838015611d5457506001600160a01b0387163b15155b15611ddd575b60405182906001600160a01b038916906000907fddf252ad1be2c89b69c2b068fc378daa952ba7f163c4a11628f55a4df523b3ef908290a4611da56000888480600101955088611abd565b611dc2576040516368d2bf6b60e11b815260040160405180910390fd5b80821415611d5a578260005414611dd857600080fd5b611e23565b5b6040516001830192906001600160a01b038916906000907fddf252ad1be2c89b69c2b068fc378daa952ba7f163c4a11628f55a4df523b3ef908290a480821415611dde575b50600055611921565b828054611e38906122f6565b90600052602060002090601f016020900481019282611e5a5760008555611ea0565b82601f10611e7357805160ff1916838001178555611ea0565b82800160010185558215611ea0579182015b82811115611ea0578251825591602001919060010190611e85565b50611eac929150611eb0565b5090565b5b80821115611eac5760008155600101611eb1565b6001600160e01b03198116811461167a57600080fd5b600060208284031215611eed57600080fd5b813561129081611ec5565b60005b83811015611f13578181015183820152602001611efb565b8381111561112b5750506000910152565b60008151808452611f3c816020860160208601611ef8565b601f01601f19169290920160200192915050565b6020815260006112906020830184611f24565b600060208284031215611f7557600080fd5b5035919050565b6001600160a01b038116811461167a57600080fd5b60008060408385031215611fa457600080fd5b8235611faf81611f7c565b946020939093013593505050565b634e487b7160e01b600052604160045260246000fd5b600067ffffffffffffffff80841115611fee57611fee611fbd565b604051601f8501601f19908116603f0116810190828211818310171561201657612016611fbd565b8160405280935085815286868601111561202f57600080fd5b858560208301376000602087830101525050509392505050565b60006020828403121561205b57600080fd5b813567ffffffffffffffff81111561207257600080fd5b8201601f8101841361208357600080fd5b611bad84823560208401611fd3565b803580151581146120a257600080fd5b919050565b6000602082840312156120b957600080fd5b61129082612092565b6000806000606084860312156120d757600080fd5b83356120e281611f7c565b925060208401356120f281611f7c565b929592945050506040919091013590565b60006020828403121561211557600080fd5b813561129081611f7c565b6020808252825182820181905260009190848201906040850190845b818110156121585783518352928401929184019160010161213c565b50909695505050505050565b6000806040838503121561217757600080fd5b823561218281611f7c565b915061219060208401612092565b90509250929050565b600080600080608085870312156121af57600080fd5b84356121ba81611f7c565b935060208501356121ca81611f7c565b925060408501359150606085013567ffffffffffffffff8111156121ed57600080fd5b8501601f810187136121fe57600080fd5b61220d87823560208401611fd3565b91505092959194509250565b60008060006040848603121561222e57600080fd5b83359250602084013567ffffffffffffffff8082111561224d57600080fd5b818601915086601f83011261226157600080fd5b81358181111561227057600080fd5b8760208260051b850101111561228557600080fd5b6020830194508093505050509250925092565b600080604083850312156122ab57600080fd5b82356122b681611f7c565b915060208301356122c681611f7c565b809150509250929050565b600080604083850312156122e457600080fd5b8235915060208301356122c681611f7c565b600181811c9082168061230a57607f821691505b6020821081141561232b57634e487b7160e01b600052602260045260246000fd5b50919050565b6020808252818101527f4f776e61626c653a2063616c6c6572206973206e6f7420746865206f776e6572604082015260600190565b634e487b7160e01b600052603260045260246000fd5b634e487b7160e01b600052601160045260246000fd5b60006000198214156123a6576123a661237c565b5060010190565b602080825260149082015273496e76616c6964206d696e7420616d6f756e742160601b604082015260600190565b600082198211156123ee576123ee61237c565b500190565b6020808252601490820152734d617820737570706c792065786365656465642160601b604082015260600190565b600081600019048311821515161561243b5761243b61237c565b500290565b6000835160206124538285838901611ef8565b845491840191600090600181811c908083168061247157607f831692505b85831081141561248f57634e487b7160e01b85526022600452602485fd5b8080156124a357600181146124b4576124e1565b60ff198516885283880195506124e1565b60008b81526020902060005b858110156124d95781548a8201529084019088016124c0565b505083880195505b50939a9950505050505050505050565b6001600160a01b038581168252841660208201526040810183905260806060820181905260009061252490830184611f24565b9695505050505050565b60006020828403121561254057600080fd5b815161129081611ec556fea26469706673582212208aff59887a78f7334a57a612b572b2ad1d252d453306180b827b5d724e0a471c64736f6c63430008090033697066733a2f2f516d6276727a3878795a51386e597a5a6b56564862567a4c65564539316e6332674b644b7135395a3864516a464e2f",
  "linkReferences": {},
  "deployedLinkReferences": {}
}